{
	"data": {
		"bytecode": {
			"linkReferences": {},
			"object": "608060405234801561000f575f80fd5b50610c018061001d5f395ff3fe608060405234801561000f575f80fd5b506004361061003f575f3560e01c806327e9f2941461004357806368dfa8ba1461005f578063942b765a1461007b575b5f80fd5b61005d6004803603810190610058919061047e565b610099565b005b6100796004803603810190610074919061047e565b6100cd565b005b610083610206565b60405161009091906105fa565b60405180910390f35b5f81908060018154018082558091505060019003905f5260205f20015f9091909190915090816100c9919061081d565b5050565b5f5b5f8054905081101561020157816040516020016100ec9190610926565b604051602081830303815290604052805190602001205f82815481106101155761011461093c565b5b905f5260205f200160405160200161012d91906109e9565b60405160208183030381529060405280519060200120036101f4575f8190505b60015f8054905061015e9190610a2c565b8110156101c1575f6001826101739190610a5f565b815481106101845761018361093c565b5b905f5260205f20015f828154811061019f5761019e61093c565b5b905f5260205f200190816101b39190610ab9565b50808060010191505061014d565b505f8054806101d3576101d2610b9e565b5b600190038181905f5260205f20015f6101ec91906102d9565b905550610203565b80806001019150506100cf565b505b50565b60605f805480602002602001604051908101604052809291908181526020015f905b828210156102d0578382905f5260205f2001805461024590610647565b80601f016020809104026020016040519081016040528092919081815260200182805461027190610647565b80156102bc5780601f10610293576101008083540402835291602001916102bc565b820191905f5260205f20905b81548152906001019060200180831161029f57829003601f168201915b505050505081526020019060010190610228565b50505050905090565b5080546102e590610647565b5f825580601f106102f65750610313565b601f0160209004905f5260205f20908101906103129190610316565b5b50565b5b8082111561032d575f815f905550600101610317565b5090565b5f604051905090565b5f80fd5b5f80fd5b5f80fd5b5f80fd5b5f601f19601f8301169050919050565b7f4e487b71000000000000000000000000000000000000000000000000000000005f52604160045260245ffd5b6103908261034a565b810181811067ffffffffffffffff821117156103af576103ae61035a565b5b80604052505050565b5f6103c1610331565b90506103cd8282610387565b919050565b5f67ffffffffffffffff8211156103ec576103eb61035a565b5b6103f58261034a565b9050602081019050919050565b828183375f83830152505050565b5f61042261041d846103d2565b6103b8565b90508281526020810184848401111561043e5761043d610346565b5b610449848285610402565b509392505050565b5f82601f83011261046557610464610342565b5b8135610475848260208601610410565b91505092915050565b5f602082840312156104935761049261033a565b5b5f82013567ffffffffffffffff8111156104b0576104af61033e565b5b6104bc84828501610451565b91505092915050565b5f81519050919050565b5f82825260208201905092915050565b5f819050602082019050919050565b5f81519050919050565b5f82825260208201905092915050565b5f5b8381101561052557808201518184015260208101905061050a565b5f8484015250505050565b5f61053a826104ee565b61054481856104f8565b9350610554818560208601610508565b61055d8161034a565b840191505092915050565b5f6105738383610530565b905092915050565b5f602082019050919050565b5f610591826104c5565b61059b81856104cf565b9350836020820285016105ad856104df565b805f5b858110156105e857848403895281516105c98582610568565b94506105d48361057b565b925060208a019950506001810190506105b0565b50829750879550505050505092915050565b5f6020820190508181035f8301526106128184610587565b905092915050565b7f4e487b71000000000000000000000000000000000000000000000000000000005f52602260045260245ffd5b5f600282049050600182168061065e57607f821691505b6020821081036106715761067061061a565b5b50919050565b5f819050815f5260205f209050919050565b5f6020601f8301049050919050565b5f82821b905092915050565b5f600883026106d37fffffffffffffffffffffffffffffffffffffffffffffffffffffffffffffffff82610698565b6106dd8683610698565b95508019841693508086168417925050509392505050565b5f819050919050565b5f819050919050565b5f61072161071c610717846106f5565b6106fe565b6106f5565b9050919050565b5f819050919050565b61073a83610707565b61074e61074682610728565b8484546106a4565b825550505050565b5f90565b610762610756565b61076d818484610731565b505050565b5b81811015610790576107855f8261075a565b600181019050610773565b5050565b601f8211156107d5576107a681610677565b6107af84610689565b810160208510156107be578190505b6107d26107ca85610689565b830182610772565b50505b505050565b5f82821c905092915050565b5f6107f55f19846008026107da565b1980831691505092915050565b5f61080d83836107e6565b9150826002028217905092915050565b610826826104ee565b67ffffffffffffffff81111561083f5761083e61035a565b5b6108498254610647565b610854828285610794565b5f60209050601f831160018114610885575f8415610873578287015190505b61087d8582610802565b8655506108e4565b601f19841661089386610677565b5f5b828110156108ba57848901518255600182019150602085019450602081019050610895565b868310156108d757848901516108d3601f8916826107e6565b8355505b6001600288020188555050505b505050505050565b5f81905092915050565b5f610900826104ee565b61090a81856108ec565b935061091a818560208601610508565b80840191505092915050565b5f61093182846108f6565b915081905092915050565b7f4e487b71000000000000000000000000000000000000000000000000000000005f52603260045260245ffd5b5f815461097581610647565b61097f81866108ec565b9450600182165f811461099957600181146109ae576109e0565b60ff19831686528115158202860193506109e0565b6109b785610677565b5f5b838110156109d8578154818901526001820191506020810190506109b9565b838801955050505b50505092915050565b5f6109f48284610969565b915081905092915050565b7f4e487b71000000000000000000000000000000000000000000000000000000005f52601160045260245ffd5b5f610a36826106f5565b9150610a41836106f5565b9250828203905081811115610a5957610a586109ff565b5b92915050565b5f610a69826106f5565b9150610a74836106f5565b9250828201905080821115610a8c57610a8b6109ff565b5b92915050565b5f81549050610aa081610647565b9050919050565b5f819050815f5260205f209050919050565b818103610ac7575050610b9c565b610ad082610a92565b67ffffffffffffffff811115610ae957610ae861035a565b5b610af38254610647565b610afe828285610794565b5f601f831160018114610b2b575f8415610b19578287015490505b610b238582610802565b865550610b95565b601f198416610b3987610aa7565b9650610b4486610677565b5f5b82811015610b6b57848901548255600182019150600185019450602081019050610b46565b86831015610b885784890154610b84601f8916826107e6565b8355505b6001600288020188555050505b5050505050505b565b7f4e487b71000000000000000000000000000000000000000000000000000000005f52603160045260245ffdfea26469706673582212206c3ccd1be5be995ffab8d85f7d0388daf243c9a8e5f0c2c041732c791cf14c5d64736f6c63430008180033",
			"opcodes": "PUSH1 0x80 PUSH1 0x40 MSTORE CALLVALUE DUP1 ISZERO PUSH2 0xF JUMPI PUSH0 DUP1 REVERT JUMPDEST POP PUSH2 0xC01 DUP1 PUSH2 0x1D PUSH0 CODECOPY PUSH0 RETURN INVALID PUSH1 0x80 PUSH1 0x40 MSTORE CALLVALUE DUP1 ISZERO PUSH2 0xF JUMPI PUSH0 DUP1 REVERT JUMPDEST POP PUSH1 0x4 CALLDATASIZE LT PUSH2 0x3F JUMPI PUSH0 CALLDATALOAD PUSH1 0xE0 SHR DUP1 PUSH4 0x27E9F294 EQ PUSH2 0x43 JUMPI DUP1 PUSH4 0x68DFA8BA EQ PUSH2 0x5F JUMPI DUP1 PUSH4 0x942B765A EQ PUSH2 0x7B JUMPI JUMPDEST PUSH0 DUP1 REVERT JUMPDEST PUSH2 0x5D PUSH1 0x4 DUP1 CALLDATASIZE SUB DUP2 ADD SWAP1 PUSH2 0x58 SWAP2 SWAP1 PUSH2 0x47E JUMP JUMPDEST PUSH2 0x99 JUMP JUMPDEST STOP JUMPDEST PUSH2 0x79 PUSH1 0x4 DUP1 CALLDATASIZE SUB DUP2 ADD SWAP1 PUSH2 0x74 SWAP2 SWAP1 PUSH2 0x47E JUMP JUMPDEST PUSH2 0xCD JUMP JUMPDEST STOP JUMPDEST PUSH2 0x83 PUSH2 0x206 JUMP JUMPDEST PUSH1 0x40 MLOAD PUSH2 0x90 SWAP2 SWAP1 PUSH2 0x5FA JUMP JUMPDEST PUSH1 0x40 MLOAD DUP1 SWAP2 SUB SWAP1 RETURN JUMPDEST PUSH0 DUP2 SWAP1 DUP1 PUSH1 0x1 DUP2 SLOAD ADD DUP1 DUP3 SSTORE DUP1 SWAP2 POP POP PUSH1 0x1 SWAP1 SUB SWAP1 PUSH0 MSTORE PUSH1 0x20 PUSH0 KECCAK256 ADD PUSH0 SWAP1 SWAP2 SWAP1 SWAP2 SWAP1 SWAP2 POP SWAP1 DUP2 PUSH2 0xC9 SWAP2 SWAP1 PUSH2 0x81D JUMP JUMPDEST POP POP JUMP JUMPDEST PUSH0 JUMPDEST PUSH0 DUP1 SLOAD SWAP1 POP DUP2 LT ISZERO PUSH2 0x201 JUMPI DUP2 PUSH1 0x40 MLOAD PUSH1 0x20 ADD PUSH2 0xEC SWAP2 SWAP1 PUSH2 0x926 JUMP JUMPDEST PUSH1 0x40 MLOAD PUSH1 0x20 DUP2 DUP4 SUB SUB DUP2 MSTORE SWAP1 PUSH1 0x40 MSTORE DUP1 MLOAD SWAP1 PUSH1 0x20 ADD KECCAK256 PUSH0 DUP3 DUP2 SLOAD DUP2 LT PUSH2 0x115 JUMPI PUSH2 0x114 PUSH2 0x93C JUMP JUMPDEST JUMPDEST SWAP1 PUSH0 MSTORE PUSH1 0x20 PUSH0 KECCAK256 ADD PUSH1 0x40 MLOAD PUSH1 0x20 ADD PUSH2 0x12D SWAP2 SWAP1 PUSH2 0x9E9 JUMP JUMPDEST PUSH1 0x40 MLOAD PUSH1 0x20 DUP2 DUP4 SUB SUB DUP2 MSTORE SWAP1 PUSH1 0x40 MSTORE DUP1 MLOAD SWAP1 PUSH1 0x20 ADD KECCAK256 SUB PUSH2 0x1F4 JUMPI PUSH0 DUP2 SWAP1 POP JUMPDEST PUSH1 0x1 PUSH0 DUP1 SLOAD SWAP1 POP PUSH2 0x15E SWAP2 SWAP1 PUSH2 0xA2C JUMP JUMPDEST DUP2 LT ISZERO PUSH2 0x1C1 JUMPI PUSH0 PUSH1 0x1 DUP3 PUSH2 0x173 SWAP2 SWAP1 PUSH2 0xA5F JUMP JUMPDEST DUP2 SLOAD DUP2 LT PUSH2 0x184 JUMPI PUSH2 0x183 PUSH2 0x93C JUMP JUMPDEST JUMPDEST SWAP1 PUSH0 MSTORE PUSH1 0x20 PUSH0 KECCAK256 ADD PUSH0 DUP3 DUP2 SLOAD DUP2 LT PUSH2 0x19F JUMPI PUSH2 0x19E PUSH2 0x93C JUMP JUMPDEST JUMPDEST SWAP1 PUSH0 MSTORE PUSH1 0x20 PUSH0 KECCAK256 ADD SWAP1 DUP2 PUSH2 0x1B3 SWAP2 SWAP1 PUSH2 0xAB9 JUMP JUMPDEST POP DUP1 DUP1 PUSH1 0x1 ADD SWAP2 POP POP PUSH2 0x14D JUMP JUMPDEST POP PUSH0 DUP1 SLOAD DUP1 PUSH2 0x1D3 JUMPI PUSH2 0x1D2 PUSH2 0xB9E JUMP JUMPDEST JUMPDEST PUSH1 0x1 SWAP1 SUB DUP2 DUP2 SWAP1 PUSH0 MSTORE PUSH1 0x20 PUSH0 KECCAK256 ADD PUSH0 PUSH2 0x1EC SWAP2 SWAP1 PUSH2 0x2D9 JUMP JUMPDEST SWAP1 SSTORE POP PUSH2 0x203 JUMP JUMPDEST DUP1 DUP1 PUSH1 0x1 ADD SWAP2 POP POP PUSH2 0xCF JUMP JUMPDEST POP JUMPDEST POP JUMP JUMPDEST PUSH1 0x60 PUSH0 DUP1 SLOAD DUP1 PUSH1 0x20 MUL PUSH1 0x20 ADD PUSH1 0x40 MLOAD SWAP1 DUP2 ADD PUSH1 0x40 MSTORE DUP1 SWAP3 SWAP2 SWAP1 DUP2 DUP2 MSTORE PUSH1 0x20 ADD PUSH0 SWAP1 JUMPDEST DUP3 DUP3 LT ISZERO PUSH2 0x2D0 JUMPI DUP4 DUP3 SWAP1 PUSH0 MSTORE PUSH1 0x20 PUSH0 KECCAK256 ADD DUP1 SLOAD PUSH2 0x245 SWAP1 PUSH2 0x647 JUMP JUMPDEST DUP1 PUSH1 0x1F ADD PUSH1 0x20 DUP1 SWAP2 DIV MUL PUSH1 0x20 ADD PUSH1 0x40 MLOAD SWAP1 DUP2 ADD PUSH1 0x40 MSTORE DUP1 SWAP3 SWAP2 SWAP1 DUP2 DUP2 MSTORE PUSH1 0x20 ADD DUP3 DUP1 SLOAD PUSH2 0x271 SWAP1 PUSH2 0x647 JUMP JUMPDEST DUP1 ISZERO PUSH2 0x2BC JUMPI DUP1 PUSH1 0x1F LT PUSH2 0x293 JUMPI PUSH2 0x100 DUP1 DUP4 SLOAD DIV MUL DUP4 MSTORE SWAP2 PUSH1 0x20 ADD SWAP2 PUSH2 0x2BC JUMP JUMPDEST DUP3 ADD SWAP2 SWAP1 PUSH0 MSTORE PUSH1 0x20 PUSH0 KECCAK256 SWAP1 JUMPDEST DUP2 SLOAD DUP2 MSTORE SWAP1 PUSH1 0x1 ADD SWAP1 PUSH1 0x20 ADD DUP1 DUP4 GT PUSH2 0x29F JUMPI DUP3 SWAP1 SUB PUSH1 0x1F AND DUP3 ADD SWAP2 JUMPDEST POP POP POP POP POP DUP2 MSTORE PUSH1 0x20 ADD SWAP1 PUSH1 0x1 ADD SWAP1 PUSH2 0x228 JUMP JUMPDEST POP POP POP POP SWAP1 POP SWAP1 JUMP JUMPDEST POP DUP1 SLOAD PUSH2 0x2E5 SWAP1 PUSH2 0x647 JUMP JUMPDEST PUSH0 DUP3 SSTORE DUP1 PUSH1 0x1F LT PUSH2 0x2F6 JUMPI POP PUSH2 0x313 JUMP JUMPDEST PUSH1 0x1F ADD PUSH1 0x20 SWAP1 DIV SWAP1 PUSH0 MSTORE PUSH1 0x20 PUSH0 KECCAK256 SWAP1 DUP2 ADD SWAP1 PUSH2 0x312 SWAP2 SWAP1 PUSH2 0x316 JUMP JUMPDEST JUMPDEST POP JUMP JUMPDEST JUMPDEST DUP1 DUP3 GT ISZERO PUSH2 0x32D JUMPI PUSH0 DUP2 PUSH0 SWAP1 SSTORE POP PUSH1 0x1 ADD PUSH2 0x317 JUMP JUMPDEST POP SWAP1 JUMP JUMPDEST PUSH0 PUSH1 0x40 MLOAD SWAP1 POP SWAP1 JUMP JUMPDEST PUSH0 DUP1 REVERT JUMPDEST PUSH0 DUP1 REVERT JUMPDEST PUSH0 DUP1 REVERT JUMPDEST PUSH0 DUP1 REVERT JUMPDEST PUSH0 PUSH1 0x1F NOT PUSH1 0x1F DUP4 ADD AND SWAP1 POP SWAP2 SWAP1 POP JUMP JUMPDEST PUSH32 0x4E487B7100000000000000000000000000000000000000000000000000000000 PUSH0 MSTORE PUSH1 0x41 PUSH1 0x4 MSTORE PUSH1 0x24 PUSH0 REVERT JUMPDEST PUSH2 0x390 DUP3 PUSH2 0x34A JUMP JUMPDEST DUP2 ADD DUP2 DUP2 LT PUSH8 0xFFFFFFFFFFFFFFFF DUP3 GT OR ISZERO PUSH2 0x3AF JUMPI PUSH2 0x3AE PUSH2 0x35A JUMP JUMPDEST JUMPDEST DUP1 PUSH1 0x40 MSTORE POP POP POP JUMP JUMPDEST PUSH0 PUSH2 0x3C1 PUSH2 0x331 JUMP JUMPDEST SWAP1 POP PUSH2 0x3CD DUP3 DUP3 PUSH2 0x387 JUMP JUMPDEST SWAP2 SWAP1 POP JUMP JUMPDEST PUSH0 PUSH8 0xFFFFFFFFFFFFFFFF DUP3 GT ISZERO PUSH2 0x3EC JUMPI PUSH2 0x3EB PUSH2 0x35A JUMP JUMPDEST JUMPDEST PUSH2 0x3F5 DUP3 PUSH2 0x34A JUMP JUMPDEST SWAP1 POP PUSH1 0x20 DUP2 ADD SWAP1 POP SWAP2 SWAP1 POP JUMP JUMPDEST DUP3 DUP2 DUP4 CALLDATACOPY PUSH0 DUP4 DUP4 ADD MSTORE POP POP POP JUMP JUMPDEST PUSH0 PUSH2 0x422 PUSH2 0x41D DUP5 PUSH2 0x3D2 JUMP JUMPDEST PUSH2 0x3B8 JUMP JUMPDEST SWAP1 POP DUP3 DUP2 MSTORE PUSH1 0x20 DUP2 ADD DUP5 DUP5 DUP5 ADD GT ISZERO PUSH2 0x43E JUMPI PUSH2 0x43D PUSH2 0x346 JUMP JUMPDEST JUMPDEST PUSH2 0x449 DUP5 DUP3 DUP6 PUSH2 0x402 JUMP JUMPDEST POP SWAP4 SWAP3 POP POP POP JUMP JUMPDEST PUSH0 DUP3 PUSH1 0x1F DUP4 ADD SLT PUSH2 0x465 JUMPI PUSH2 0x464 PUSH2 0x342 JUMP JUMPDEST JUMPDEST DUP2 CALLDATALOAD PUSH2 0x475 DUP5 DUP3 PUSH1 0x20 DUP7 ADD PUSH2 0x410 JUMP JUMPDEST SWAP2 POP POP SWAP3 SWAP2 POP POP JUMP JUMPDEST PUSH0 PUSH1 0x20 DUP3 DUP5 SUB SLT ISZERO PUSH2 0x493 JUMPI PUSH2 0x492 PUSH2 0x33A JUMP JUMPDEST JUMPDEST PUSH0 DUP3 ADD CALLDATALOAD PUSH8 0xFFFFFFFFFFFFFFFF DUP2 GT ISZERO PUSH2 0x4B0 JUMPI PUSH2 0x4AF PUSH2 0x33E JUMP JUMPDEST JUMPDEST PUSH2 0x4BC DUP5 DUP3 DUP6 ADD PUSH2 0x451 JUMP JUMPDEST SWAP2 POP POP SWAP3 SWAP2 POP POP JUMP JUMPDEST PUSH0 DUP2 MLOAD SWAP1 POP SWAP2 SWAP1 POP JUMP JUMPDEST PUSH0 DUP3 DUP3 MSTORE PUSH1 0x20 DUP3 ADD SWAP1 POP SWAP3 SWAP2 POP POP JUMP JUMPDEST PUSH0 DUP2 SWAP1 POP PUSH1 0x20 DUP3 ADD SWAP1 POP SWAP2 SWAP1 POP JUMP JUMPDEST PUSH0 DUP2 MLOAD SWAP1 POP SWAP2 SWAP1 POP JUMP JUMPDEST PUSH0 DUP3 DUP3 MSTORE PUSH1 0x20 DUP3 ADD SWAP1 POP SWAP3 SWAP2 POP POP JUMP JUMPDEST PUSH0 JUMPDEST DUP4 DUP2 LT ISZERO PUSH2 0x525 JUMPI DUP1 DUP3 ADD MLOAD DUP2 DUP5 ADD MSTORE PUSH1 0x20 DUP2 ADD SWAP1 POP PUSH2 0x50A JUMP JUMPDEST PUSH0 DUP5 DUP5 ADD MSTORE POP POP POP POP JUMP JUMPDEST PUSH0 PUSH2 0x53A DUP3 PUSH2 0x4EE JUMP JUMPDEST PUSH2 0x544 DUP2 DUP6 PUSH2 0x4F8 JUMP JUMPDEST SWAP4 POP PUSH2 0x554 DUP2 DUP6 PUSH1 0x20 DUP7 ADD PUSH2 0x508 JUMP JUMPDEST PUSH2 0x55D DUP2 PUSH2 0x34A JUMP JUMPDEST DUP5 ADD SWAP2 POP POP SWAP3 SWAP2 POP POP JUMP JUMPDEST PUSH0 PUSH2 0x573 DUP4 DUP4 PUSH2 0x530 JUMP JUMPDEST SWAP1 POP SWAP3 SWAP2 POP POP JUMP JUMPDEST PUSH0 PUSH1 0x20 DUP3 ADD SWAP1 POP SWAP2 SWAP1 POP JUMP JUMPDEST PUSH0 PUSH2 0x591 DUP3 PUSH2 0x4C5 JUMP JUMPDEST PUSH2 0x59B DUP2 DUP6 PUSH2 0x4CF JUMP JUMPDEST SWAP4 POP DUP4 PUSH1 0x20 DUP3 MUL DUP6 ADD PUSH2 0x5AD DUP6 PUSH2 0x4DF JUMP JUMPDEST DUP1 PUSH0 JUMPDEST DUP6 DUP2 LT ISZERO PUSH2 0x5E8 JUMPI DUP5 DUP5 SUB DUP10 MSTORE DUP2 MLOAD PUSH2 0x5C9 DUP6 DUP3 PUSH2 0x568 JUMP JUMPDEST SWAP5 POP PUSH2 0x5D4 DUP4 PUSH2 0x57B JUMP JUMPDEST SWAP3 POP PUSH1 0x20 DUP11 ADD SWAP10 POP POP PUSH1 0x1 DUP2 ADD SWAP1 POP PUSH2 0x5B0 JUMP JUMPDEST POP DUP3 SWAP8 POP DUP8 SWAP6 POP POP POP POP POP POP SWAP3 SWAP2 POP POP JUMP JUMPDEST PUSH0 PUSH1 0x20 DUP3 ADD SWAP1 POP DUP2 DUP2 SUB PUSH0 DUP4 ADD MSTORE PUSH2 0x612 DUP2 DUP5 PUSH2 0x587 JUMP JUMPDEST SWAP1 POP SWAP3 SWAP2 POP POP JUMP JUMPDEST PUSH32 0x4E487B7100000000000000000000000000000000000000000000000000000000 PUSH0 MSTORE PUSH1 0x22 PUSH1 0x4 MSTORE PUSH1 0x24 PUSH0 REVERT JUMPDEST PUSH0 PUSH1 0x2 DUP3 DIV SWAP1 POP PUSH1 0x1 DUP3 AND DUP1 PUSH2 0x65E JUMPI PUSH1 0x7F DUP3 AND SWAP2 POP JUMPDEST PUSH1 0x20 DUP3 LT DUP2 SUB PUSH2 0x671 JUMPI PUSH2 0x670 PUSH2 0x61A JUMP JUMPDEST JUMPDEST POP SWAP2 SWAP1 POP JUMP JUMPDEST PUSH0 DUP2 SWAP1 POP DUP2 PUSH0 MSTORE PUSH1 0x20 PUSH0 KECCAK256 SWAP1 POP SWAP2 SWAP1 POP JUMP JUMPDEST PUSH0 PUSH1 0x20 PUSH1 0x1F DUP4 ADD DIV SWAP1 POP SWAP2 SWAP1 POP JUMP JUMPDEST PUSH0 DUP3 DUP3 SHL SWAP1 POP SWAP3 SWAP2 POP POP JUMP JUMPDEST PUSH0 PUSH1 0x8 DUP4 MUL PUSH2 0x6D3 PUSH32 0xFFFFFFFFFFFFFFFFFFFFFFFFFFFFFFFFFFFFFFFFFFFFFFFFFFFFFFFFFFFFFFFF DUP3 PUSH2 0x698 JUMP JUMPDEST PUSH2 0x6DD DUP7 DUP4 PUSH2 0x698 JUMP JUMPDEST SWAP6 POP DUP1 NOT DUP5 AND SWAP4 POP DUP1 DUP7 AND DUP5 OR SWAP3 POP POP POP SWAP4 SWAP3 POP POP POP JUMP JUMPDEST PUSH0 DUP2 SWAP1 POP SWAP2 SWAP1 POP JUMP JUMPDEST PUSH0 DUP2 SWAP1 POP SWAP2 SWAP1 POP JUMP JUMPDEST PUSH0 PUSH2 0x721 PUSH2 0x71C PUSH2 0x717 DUP5 PUSH2 0x6F5 JUMP JUMPDEST PUSH2 0x6FE JUMP JUMPDEST PUSH2 0x6F5 JUMP JUMPDEST SWAP1 POP SWAP2 SWAP1 POP JUMP JUMPDEST PUSH0 DUP2 SWAP1 POP SWAP2 SWAP1 POP JUMP JUMPDEST PUSH2 0x73A DUP4 PUSH2 0x707 JUMP JUMPDEST PUSH2 0x74E PUSH2 0x746 DUP3 PUSH2 0x728 JUMP JUMPDEST DUP5 DUP5 SLOAD PUSH2 0x6A4 JUMP JUMPDEST DUP3 SSTORE POP POP POP POP JUMP JUMPDEST PUSH0 SWAP1 JUMP JUMPDEST PUSH2 0x762 PUSH2 0x756 JUMP JUMPDEST PUSH2 0x76D DUP2 DUP5 DUP5 PUSH2 0x731 JUMP JUMPDEST POP POP POP JUMP JUMPDEST JUMPDEST DUP2 DUP2 LT ISZERO PUSH2 0x790 JUMPI PUSH2 0x785 PUSH0 DUP3 PUSH2 0x75A JUMP JUMPDEST PUSH1 0x1 DUP2 ADD SWAP1 POP PUSH2 0x773 JUMP JUMPDEST POP POP JUMP JUMPDEST PUSH1 0x1F DUP3 GT ISZERO PUSH2 0x7D5 JUMPI PUSH2 0x7A6 DUP2 PUSH2 0x677 JUMP JUMPDEST PUSH2 0x7AF DUP5 PUSH2 0x689 JUMP JUMPDEST DUP2 ADD PUSH1 0x20 DUP6 LT ISZERO PUSH2 0x7BE JUMPI DUP2 SWAP1 POP JUMPDEST PUSH2 0x7D2 PUSH2 0x7CA DUP6 PUSH2 0x689 JUMP JUMPDEST DUP4 ADD DUP3 PUSH2 0x772 JUMP JUMPDEST POP POP JUMPDEST POP POP POP JUMP JUMPDEST PUSH0 DUP3 DUP3 SHR SWAP1 POP SWAP3 SWAP2 POP POP JUMP JUMPDEST PUSH0 PUSH2 0x7F5 PUSH0 NOT DUP5 PUSH1 0x8 MUL PUSH2 0x7DA JUMP JUMPDEST NOT DUP1 DUP4 AND SWAP2 POP POP SWAP3 SWAP2 POP POP JUMP JUMPDEST PUSH0 PUSH2 0x80D DUP4 DUP4 PUSH2 0x7E6 JUMP JUMPDEST SWAP2 POP DUP3 PUSH1 0x2 MUL DUP3 OR SWAP1 POP SWAP3 SWAP2 POP POP JUMP JUMPDEST PUSH2 0x826 DUP3 PUSH2 0x4EE JUMP JUMPDEST PUSH8 0xFFFFFFFFFFFFFFFF DUP2 GT ISZERO PUSH2 0x83F JUMPI PUSH2 0x83E PUSH2 0x35A JUMP JUMPDEST JUMPDEST PUSH2 0x849 DUP3 SLOAD PUSH2 0x647 JUMP JUMPDEST PUSH2 0x854 DUP3 DUP3 DUP6 PUSH2 0x794 JUMP JUMPDEST PUSH0 PUSH1 0x20 SWAP1 POP PUSH1 0x1F DUP4 GT PUSH1 0x1 DUP2 EQ PUSH2 0x885 JUMPI PUSH0 DUP5 ISZERO PUSH2 0x873 JUMPI DUP3 DUP8 ADD MLOAD SWAP1 POP JUMPDEST PUSH2 0x87D DUP6 DUP3 PUSH2 0x802 JUMP JUMPDEST DUP7 SSTORE POP PUSH2 0x8E4 JUMP JUMPDEST PUSH1 0x1F NOT DUP5 AND PUSH2 0x893 DUP7 PUSH2 0x677 JUMP JUMPDEST PUSH0 JUMPDEST DUP3 DUP2 LT ISZERO PUSH2 0x8BA JUMPI DUP5 DUP10 ADD MLOAD DUP3 SSTORE PUSH1 0x1 DUP3 ADD SWAP2 POP PUSH1 0x20 DUP6 ADD SWAP5 POP PUSH1 0x20 DUP2 ADD SWAP1 POP PUSH2 0x895 JUMP JUMPDEST DUP7 DUP4 LT ISZERO PUSH2 0x8D7 JUMPI DUP5 DUP10 ADD MLOAD PUSH2 0x8D3 PUSH1 0x1F DUP10 AND DUP3 PUSH2 0x7E6 JUMP JUMPDEST DUP4 SSTORE POP JUMPDEST PUSH1 0x1 PUSH1 0x2 DUP9 MUL ADD DUP9 SSTORE POP POP POP JUMPDEST POP POP POP POP POP POP JUMP JUMPDEST PUSH0 DUP2 SWAP1 POP SWAP3 SWAP2 POP POP JUMP JUMPDEST PUSH0 PUSH2 0x900 DUP3 PUSH2 0x4EE JUMP JUMPDEST PUSH2 0x90A DUP2 DUP6 PUSH2 0x8EC JUMP JUMPDEST SWAP4 POP PUSH2 0x91A DUP2 DUP6 PUSH1 0x20 DUP7 ADD PUSH2 0x508 JUMP JUMPDEST DUP1 DUP5 ADD SWAP2 POP POP SWAP3 SWAP2 POP POP JUMP JUMPDEST PUSH0 PUSH2 0x931 DUP3 DUP5 PUSH2 0x8F6 JUMP JUMPDEST SWAP2 POP DUP2 SWAP1 POP SWAP3 SWAP2 POP POP JUMP JUMPDEST PUSH32 0x4E487B7100000000000000000000000000000000000000000000000000000000 PUSH0 MSTORE PUSH1 0x32 PUSH1 0x4 MSTORE PUSH1 0x24 PUSH0 REVERT JUMPDEST PUSH0 DUP2 SLOAD PUSH2 0x975 DUP2 PUSH2 0x647 JUMP JUMPDEST PUSH2 0x97F DUP2 DUP7 PUSH2 0x8EC JUMP JUMPDEST SWAP5 POP PUSH1 0x1 DUP3 AND PUSH0 DUP2 EQ PUSH2 0x999 JUMPI PUSH1 0x1 DUP2 EQ PUSH2 0x9AE JUMPI PUSH2 0x9E0 JUMP JUMPDEST PUSH1 0xFF NOT DUP4 AND DUP7 MSTORE DUP2 ISZERO ISZERO DUP3 MUL DUP7 ADD SWAP4 POP PUSH2 0x9E0 JUMP JUMPDEST PUSH2 0x9B7 DUP6 PUSH2 0x677 JUMP JUMPDEST PUSH0 JUMPDEST DUP4 DUP2 LT ISZERO PUSH2 0x9D8 JUMPI DUP2 SLOAD DUP2 DUP10 ADD MSTORE PUSH1 0x1 DUP3 ADD SWAP2 POP PUSH1 0x20 DUP2 ADD SWAP1 POP PUSH2 0x9B9 JUMP JUMPDEST DUP4 DUP9 ADD SWAP6 POP POP POP JUMPDEST POP POP POP SWAP3 SWAP2 POP POP JUMP JUMPDEST PUSH0 PUSH2 0x9F4 DUP3 DUP5 PUSH2 0x969 JUMP JUMPDEST SWAP2 POP DUP2 SWAP1 POP SWAP3 SWAP2 POP POP JUMP JUMPDEST PUSH32 0x4E487B7100000000000000000000000000000000000000000000000000000000 PUSH0 MSTORE PUSH1 0x11 PUSH1 0x4 MSTORE PUSH1 0x24 PUSH0 REVERT JUMPDEST PUSH0 PUSH2 0xA36 DUP3 PUSH2 0x6F5 JUMP JUMPDEST SWAP2 POP PUSH2 0xA41 DUP4 PUSH2 0x6F5 JUMP JUMPDEST SWAP3 POP DUP3 DUP3 SUB SWAP1 POP DUP2 DUP2 GT ISZERO PUSH2 0xA59 JUMPI PUSH2 0xA58 PUSH2 0x9FF JUMP JUMPDEST JUMPDEST SWAP3 SWAP2 POP POP JUMP JUMPDEST PUSH0 PUSH2 0xA69 DUP3 PUSH2 0x6F5 JUMP JUMPDEST SWAP2 POP PUSH2 0xA74 DUP4 PUSH2 0x6F5 JUMP JUMPDEST SWAP3 POP DUP3 DUP3 ADD SWAP1 POP DUP1 DUP3 GT ISZERO PUSH2 0xA8C JUMPI PUSH2 0xA8B PUSH2 0x9FF JUMP JUMPDEST JUMPDEST SWAP3 SWAP2 POP POP JUMP JUMPDEST PUSH0 DUP2 SLOAD SWAP1 POP PUSH2 0xAA0 DUP2 PUSH2 0x647 JUMP JUMPDEST SWAP1 POP SWAP2 SWAP1 POP JUMP JUMPDEST PUSH0 DUP2 SWAP1 POP DUP2 PUSH0 MSTORE PUSH1 0x20 PUSH0 KECCAK256 SWAP1 POP SWAP2 SWAP1 POP JUMP JUMPDEST DUP2 DUP2 SUB PUSH2 0xAC7 JUMPI POP POP PUSH2 0xB9C JUMP JUMPDEST PUSH2 0xAD0 DUP3 PUSH2 0xA92 JUMP JUMPDEST PUSH8 0xFFFFFFFFFFFFFFFF DUP2 GT ISZERO PUSH2 0xAE9 JUMPI PUSH2 0xAE8 PUSH2 0x35A JUMP JUMPDEST JUMPDEST PUSH2 0xAF3 DUP3 SLOAD PUSH2 0x647 JUMP JUMPDEST PUSH2 0xAFE DUP3 DUP3 DUP6 PUSH2 0x794 JUMP JUMPDEST PUSH0 PUSH1 0x1F DUP4 GT PUSH1 0x1 DUP2 EQ PUSH2 0xB2B JUMPI PUSH0 DUP5 ISZERO PUSH2 0xB19 JUMPI DUP3 DUP8 ADD SLOAD SWAP1 POP JUMPDEST PUSH2 0xB23 DUP6 DUP3 PUSH2 0x802 JUMP JUMPDEST DUP7 SSTORE POP PUSH2 0xB95 JUMP JUMPDEST PUSH1 0x1F NOT DUP5 AND PUSH2 0xB39 DUP8 PUSH2 0xAA7 JUMP JUMPDEST SWAP7 POP PUSH2 0xB44 DUP7 PUSH2 0x677 JUMP JUMPDEST PUSH0 JUMPDEST DUP3 DUP2 LT ISZERO PUSH2 0xB6B JUMPI DUP5 DUP10 ADD SLOAD DUP3 SSTORE PUSH1 0x1 DUP3 ADD SWAP2 POP PUSH1 0x1 DUP6 ADD SWAP5 POP PUSH1 0x20 DUP2 ADD SWAP1 POP PUSH2 0xB46 JUMP JUMPDEST DUP7 DUP4 LT ISZERO PUSH2 0xB88 JUMPI DUP5 DUP10 ADD SLOAD PUSH2 0xB84 PUSH1 0x1F DUP10 AND DUP3 PUSH2 0x7E6 JUMP JUMPDEST DUP4 SSTORE POP JUMPDEST PUSH1 0x1 PUSH1 0x2 DUP9 MUL ADD DUP9 SSTORE POP POP POP JUMPDEST POP POP POP POP POP POP JUMPDEST JUMP JUMPDEST PUSH32 0x4E487B7100000000000000000000000000000000000000000000000000000000 PUSH0 MSTORE PUSH1 0x31 PUSH1 0x4 MSTORE PUSH1 0x24 PUSH0 REVERT INVALID LOG2 PUSH5 0x6970667358 0x22 SLT KECCAK256 PUSH13 0x3CCD1BE5BE995FFAB8D85F7D03 DUP9 0xDA CALLCODE NUMBER 0xC9 0xA8 0xE5 CREATE 0xC2 0xC0 COINBASE PUSH20 0x2C791CF14C5D64736F6C63430008180033000000 "
		},
		"gasEstimates": {
			"creation": {
				"codeDepositCost": "614600",
				"executionCost": "649",
				"totalCost": "615249"
			},
			"external": {
				"addItem(string)": "infinite",
				"getList()": "infinite",
				"removeItem(string)": "infinite"
			}
		},
		"methodIdentifiers": {
			"addItem(string)": "27e9f294",
			"getList()": "942b765a",
			"removeItem(string)": "68dfa8ba"
		}
	},
	"abi": [
		{
			"inputs": [
				{
					"internalType": "string",
					"name": "_item",
					"type": "string"
				}
			],
			"name": "addItem",
			"outputs": [],
			"stateMutability": "nonpayable",
			"type": "function"
		},
		{
			"inputs": [],
			"name": "getList",
			"outputs": [
				{
					"internalType": "string[]",
					"name": "",
					"type": "string[]"
				}
			],
			"stateMutability": "view",
			"type": "function"
		},
		{
			"inputs": [
				{
					"internalType": "string",
					"name": "_item",
					"type": "string"
				}
			],
			"name": "removeItem",
			"outputs": [],
			"stateMutability": "nonpayable",
			"type": "function"
		}
	]
}